:020000040800F2
:10000000480400204501000889030008A9020008EF
:10001000850300088D010008870900080000000022
:1000200000000000000000000000000009050008BA
:10003000910100080000000011040008F505000807
:100040005F0100085F0100085F0100085F01000810
:100050005F0100085F0100085F0100085F01000800
:100060005F0100085F0100085F0100085F010008F0
:100070005F0100085F0100085F0100085F010008E0
:100080005F0100085F0100085F0100085F010008D0
:100090005F0100085F0100085F0100085F010008C0
:1000A0005F0100085F0100085F0100085F010008B0
:1000B0005F0100085F0100085F0100085F010008A0
:1000C0005F0100085F0100085F0100085F01000890
:1000D0005F010008590600085F0100085F01000881
:1000E0005F0100085F0100085F0100085F01000870
:1000F0005F0100085F0100085F0100085F01000860
:100100005F0100085F0100085F0100085F0100084F
:100110005F0100085F0100085F0100085F0100083F
:100120005F0100085F0100085F0100085F0100082F
:10013000DFF80CD000F018F800480047A9090008C3
:10014000480400200648804706480047FEE7FEE7CF
:10015000FEE7FEE7FEE7FEE7FEE7FEE7FEE7FEE777
:10016000F905000831010008064C074D06E0E0687B
:1001700040F0010394E8070098471034AC42F6D3EE
:10018000FFF7DAFF400A0008600A000800BFFEE738
:1001900070472DE9F041024600250026002000238B
:1001A0000024002791F803C00CF00F0591F803C05C
:1001B0000CF0100CBCF1000F03D091F802C04CEA17
:1001C000050591F800C0BCF1000F31D01468002083
:1001D0002BE04FF0010C0CFA00F3B1F800C00CEA70
:1001E00003069E4220D183004FF00F0C0CFA03F758
:1001F000BC4305FA03FC4CEA040491F803C0BCF1CB
:10020000280F06D14FF0010C0CFA00FCC2F814C004
:100210000AE091F803C0BCF1480F05D14FF0010C82
:100220000CFA00FCC2F810C0401C0828D1D314609E
:10023000B1F800C0BCF1FF0F34DD546800202EE09F
:1002400000F1080C4FF0010808FA0CF3B1F800C0F7
:100250000CEA03069E4221D183004FF00F0C0CFAEA
:1002600003F7BC4305FA03FC4CEA040491F803C00D
:10027000BCF1280F05D100F1080C08FA0CF8C2F8FF
:10028000148091F803C0BCF1480F07D100F1080CAD
:100290004FF0010808FA0CF8C2F81080401C08283A
:1002A000CED35460BDE8F08100BFFEE7014611B136
:1002B0000120324A10703148007800283CD0304884
:1002C000006898B12E480C30006878B12C4818307E
:1002D000006858B12A482030006838B128481430E6
:1002E000006818B126482430006828BB0020234A43
:1002F00010702348006808B93120704720480C303E
:10030000006808B93220F8E71D481830006808B9BD
:100310003320F2E71A482030006808B93420ECE7AF
:1003200017481430006808B93520E6E7144824302F
:10033000006808B93620E0E71148006801281AD1A2
:100340000F480C300068012815D10D48183000689E
:10035000012810D10A482030006801280BD1084834
:1003600014300068012806D10548243000680128AF
:1003700001D1024A10700020BFE700001F000020DA
:100380001C81214200BFFEE77047000070B50021CC
:1003900000230F22C47804B3154C246804F4E064ED
:1003A000C4F5E064210AC1F10403CA40447804FAA8
:1003B00003F184781440214309010E4C0678A155BD
:1003C000047804F01F050124AC4005786D11AD00E0
:1003D00005F1E025C5F8004109E0047804F01F05A7
:1003E0000124AC40044D0678761145F8264070BDD6
:1003F0000CED00E000E400E080E100E00249014390
:10040000024A1160704700000000FA050CED00E0A0
:100410007047000029B1064A92690243044B9A6171
:1004200004E0034A92698243014B9A6170470000DD
:100430000010024030B500210022002400232D4D81
:100440006D6805F00C0121B1042905D0082923D1DC
:1004500005E0294D056022E0274D05601FE0254D90
:100460006D6805F47012234D6D6805F48034022523
:1004700005EB92421CB9214D554305600BE01D4D23
:100480006D6805F400351DB11C4D5543056002E053
:10049000194D5543056002E0174D056000BF00BFD0
:1004A000144D6D6805F0F0010909154D6B5C056888
:1004B000DD4045600F4D6D6805F4E061090A104D9F
:1004C0006B5C4568DD4085600A4D6D6805F46051E0
:1004D000C90A0B4D6B5C4568DD40C560054D6D6814
:1004E00005F44041890B074D6B5CC568B5FBF3F51E
:1004F000056130BD0010024000127A0000093D0085
:100500002000002030000020704710B500F002F8F5
:1005100010BD00000CB50020019000903348006829
:1005200040F480303149086000BF3048006800F472
:10053000003000900198401C0190009818B9019873
:10054000B0F5A06FF1D12948006800F4003010B177
:100550000120009001E0002000900098012843D184
:100560002348006840F010002149086008460068F0
:1005700020F0030008600846006840F002000860B0
:100580001A4840681949486008464068486008466B
:10059000406840F4806048600846406820F47C1061
:1005A00048600846406840F4E81048600846006823
:1005B00040F08070086000BF0C48006800F00070D8
:1005C0000028F9D00948406820F003000749486036
:1005D0000846406840F00200486000BF0348406899
:1005E00000F00C000828F9D10CBD000000100240FA
:1005F000002002407047000010B51348006840F02A
:1006000001001149086008464068104908400E4939
:100610004860084600680E4908400B4908600846D3
:10062000006820F4802008600846406820F4FE003E
:1006300048604FF41F008860FFF767FF4FF00060CD
:100640000449086010BD0000001002400000FFF8DF
:10065000FFFFF6FE08ED00E010B540F225511A4804
:1006600000F0CCF810B3184800F084F9C4B2174871
:10067000008800F40040C8B91448008800F48040A5
:1006800060B10A2C03D00020104908801AE00F48FE
:10069000008840F400400D49088013E00D2C06D17D
:1006A0000A48008840F48040084908800AE007486A
:1006B0000088C0F30D0006490C5404480088401C13
:1006C0000249088010BD00000038014034000020BD
:1006D0003800002070B504460D4611E040210A485C
:1006E00000F06AF814F8011B074800F048F900BF51
:1006F0004021054800F075F80028F9D0681EC5B201
:10070000002DEBDC70BD00000038014010B586B054
:10071000044601210420FFF77DFE01218803FFF735
:1007200079FE18208DF817004FF40070ADF8140012
:1007300003208DF8160005A91D48FFF72AFD0420A7
:100740008DF817000002ADF8140003208DF8160094
:1007500005A91748FFF71DFD01940020ADF8100012
:100760000C20ADF80E000020ADF80C00ADF80A002A
:10077000ADF8080001A90F4800F090F801210D48DC
:1007800000F023F8012240F225510A4800F060F8F9
:1007900025208DF8000001208DF803008DF8010060
:1007A0008DF802006846FFF7F1FD06B010BD0000AD
:1007B000000801400038014001F40072B2F5007FEA
:1007C00000D100BFCA430280704721B1828942F440
:1007D0000052828104E082894DF6FF731A408281C3
:1007E000704702460020B1F5007F00D100BF13889A
:1007F0000B400BB1012000E00020704770B50246AD
:10080000002400230025002040F66A16B14200D1E2
:1008100000BFC1F3421501F01F03012606FA03F3DE
:10082000012D02D19689334006E0022D02D1168AAD
:10083000334001E0968A33400C12012606FA04F494
:100840001688344013B10CB1012000E0002070BDC7
:10085000F0B50346002400260025002040F66A1764
:10086000B94200D100BF1846C1F3421401F01F067F
:10087000012707FA06F5012C01D10C3004E0022C07
:1008800001D1103000E014301AB107682F4307601F
:1008900002E00768AF430760F0BD00002DE9F047B4
:1008A00086B005460E460024A24600BFA14600279A
:1008B000B08900B100BF2F462C8A4CF6FF7004406F
:1008C000F08804432C82AC894EF6F3100440B088C3
:1008D00031890843718908430443AC81AC8A4FF6DF
:1008E000FF400440B0890443AC8201A8FFF7A2FD99
:1008F0001F48874202D1DDF810A001E0DDF80CA00E
:10090000A88900F4004040B10AEBCA0000EB0A10CD
:1009100031684900B0FBF1F807E00AEBCA0000EBD0
:100920000A1031688900B0FBF1F86420B8FBF0F0E0
:1009300004012009642101FB1089A88900F400400A
:1009400040B1322000EBC900B0FBF1F000F007002D
:10095000044308E0322000EB09106421B0FBF1F001
:1009600000F00F0004432C8106B0BDE8F0870000C2
:100970000038014001468888C0F308007047C1F381
:1009800008028280704700BFFEE702E008C8121F1D
:1009900008C1002AFAD170477047002001E001C168
:1009A000121F002AFBD170474FF4A060FFF726FD0D
:1009B0004FF41650FFF7AAFE0B2118A0FFF78AFE8E
:1009C0002BE00020FFF772FC044634B3072C23D23F
:1009D000DFE804F02204090E13181D000521124857
:1009E000FFF778FE18E005211048FFF773FE13E0CB
:1009F00005210F48FFF76EFE0EE005210D48FFF7B9
:100A000069FE09E005210C48FFF764FE04E00521BA
:100A10000A48FFF75FFE00BF00BFD2E73132333430
:100A200035363738390D0A00010000200600002055
:100A30000B00002010000020150000201A000020EC
:100A4000600A000800000020380000008A09000841
:100A5000980A000838000020100400009A090008D5
:100A6000007E030102EF7E030E0DEF7E030300EF15
:100A70007E030407EF7E030506EF7E030605EF0104
:100A80000000000001020304010203040607080934
:080A900002040608000000004A
:0400000508000145A9
:00000001FF
