:0300000002009D5E
:0C009D00787FE4F6D8FD75812A0200E4AB
:0C0203003132333435363738390D0A00FB
:10019D0001210005127E030102EF05227E030E0DE3
:1001AD00EF05177E030300EF050D7E030407EF0532
:0D01BD00087E030506EF051C7E030605EF16
:0601CB008B288A29892A15
:1001D100E4FFFEEEC39D5013AB28AA29A92A8E8203
:0B01E10075830012014262070E80E8E7
:0101EC0022F0
:1001ED00EF1FAA0670011E4A600BE4FDEDC3947863
:0501FD0050EE0D80F73B
:0102020022D9
:08020F008F993099FDC299227C
:10016F008B288A29892AAC05ECD39400401FAB2831
:10017F00052AE52AAA297002052914F9120129FF77
:0E018F0012020F7F057E001201ED1C80DB22A4
:10000300E4F527759840758920F587758DFD758B07
:10001300FDC299D28E7BFF7A0279037D0C12016FA8
:100023007F647E001201ED2090203090FDE4F512F4
:10003300FB7A0079127D031201CB8F2175127E8525
:1000430021157B007A007912803620930B3093FDC3
:100053007B007A007922802820950B3095FD7B0068
:100063007A007908801A20970B3097FD7B007A007D
:10007300791C800C2096103096FD7B007A0079174E
:100083007D0512016F80A020929D3092FD7B007A46
:0A00930000790D7D0512016F808DCC
:1000A900020003E493A3F8E493A34003F68001F26A
:1000B90008DFF48029E493A3F85407240CC8C33358
:1000C900C4540F4420C8834004F456800146F6DF27
:1000D900E4800B010204081020408090019DE47E19
:1000E900019360BCA3FF543F30E509541FFEE4931C
:1000F900A360010ECF54C025E060A840B8E493A3E3
:10010900FAE493A3F8E493A3C8C582C8CAC583CA0D
:10011900F0A3C8C582C8CAC583CADFE9DEE780BEC5
:0101CA000034
:10012900BB010689828A83E0225002E722BBFE02D4
:09013900E32289828A83E4932207
:10014200BB010CE58229F582E5833AF583E0225072
:1001520006E92582F8E622BBFE06E92582F8E222BC
:0D016200E58229F582E5833AF583E49322D6
:00000001FF
